{"abi":[{"type":"function","name":"VERIFIER_HASH","inputs":[],"outputs":[{"name":"","type":"bytes32","internalType":"bytes32"}],"stateMutability":"view"},{"type":"function","name":"verifyProof","inputs":[{"name":"programVKey","type":"bytes32","internalType":"bytes32"},{"name":"publicValues","type":"bytes","internalType":"bytes"},{"name":"proofBytes","type":"bytes","internalType":"bytes"}],"outputs":[],"stateMutability":"pure"}],"bytecode":{"object":"0x608060405234801561000f575f80fd5b506102748061001d5f395ff3fe608060405234801561000f575f80fd5b5060043610610034575f3560e01c80632a5104361461003857806341493c6014610071575b5f80fd5b61005f7f2598b5d8ba1eabc94e167662b6f1becda7541fcb3c99123140e3f5e83f6ac0b381565b60405190815260200160405180910390f35b61008461007f3660046101ca565b610086565b005b846100d85760405162461bcd60e51b815260206004820152601d60248201527f4d6f636b53503156657269666965723a20496e76616c696420766b657900000060448201526064015b60405180910390fd5b826101315760405162461bcd60e51b8152602060048201526024808201527f4d6f636b53503156657269666965723a20456d707479207075626c69632076616044820152636c75657360e01b60648201526084016100cf565b8061017e5760405162461bcd60e51b815260206004820152601c60248201527f4d6f636b53503156657269666965723a20456d7074792070726f6f660000000060448201526064016100cf565b5050505050565b5f8083601f840112610195575f80fd5b50813567ffffffffffffffff8111156101ac575f80fd5b6020830191508360208285010111156101c3575f80fd5b9250929050565b5f805f805f606086880312156101de575f80fd5b85359450602086013567ffffffffffffffff808211156101fc575f80fd5b61020889838a01610185565b90965094506040880135915080821115610220575f80fd5b5061022d88828901610185565b96999598509396509294939250505056fea264697066735822122060be9f1a92d476b10923ec8579ec1e273a7c8f0a6165016962f02a3acf80e13564736f6c63430008140033","linkReferences":{}},"methodIdentifiers":{"VERIFIER_HASH()":"2a510436","verifyProof(bytes32,bytes,bytes)":"41493c60"},"id":25}