{"abi":[{"type":"constructor","inputs":[{"name":"_verifier","type":"address","internalType":"address"},{"name":"_vkey","type":"bytes32","internalType":"bytes32"}],"stateMutability":"nonpayable"},{"type":"function","name":"getVerifier","inputs":[],"outputs":[{"name":"","type":"address","internalType":"address"}],"stateMutability":"view"},{"type":"function","name":"isVerified","inputs":[{"name":"employee","type":"address","internalType":"address"},{"name":"payPeriod","type":"uint256","internalType":"uint256"}],"outputs":[{"name":"","type":"bool","internalType":"bool"}],"stateMutability":"view"},{"type":"function","name":"payrollProgramVKey","inputs":[],"outputs":[{"name":"","type":"bytes32","internalType":"bytes32"}],"stateMutability":"view"},{"type":"function","name":"verifiedPeriods","inputs":[{"name":"","type":"address","internalType":"address"},{"name":"","type":"uint256","internalType":"uint256"}],"outputs":[{"name":"","type":"bool","internalType":"bool"}],"stateMutability":"view"},{"type":"function","name":"verifier","inputs":[],"outputs":[{"name":"","type":"address","internalType":"contract ISP1Verifier"}],"stateMutability":"view"},{"type":"function","name":"verifySalary","inputs":[{"name":"employee","type":"address","internalType":"address"},{"name":"payPeriod","type":"uint256","internalType":"uint256"},{"name":"payrollHash","type":"bytes32","internalType":"bytes32"},{"name":"proof","type":"bytes","internalType":"bytes"}],"outputs":[],"stateMutability":"nonpayable"},{"type":"event","name":"SalaryVerified","inputs":[{"name":"employee","type":"address","indexed":true,"internalType":"address"},{"name":"payPeriod","type":"uint256","indexed":true,"internalType":"uint256"},{"name":"payrollHash","type":"bytes32","indexed":false,"internalType":"bytes32"}],"anonymous":false},{"type":"event","name":"VerificationFailed","inputs":[{"name":"employee","type":"address","indexed":true,"internalType":"address"},{"name":"payPeriod","type":"uint256","indexed":true,"internalType":"uint256"},{"name":"reason","type":"string","indexed":false,"internalType":"string"}],"anonymous":false}],"bytecode":{"object":"0x60c060405234801561000f575f80fd5b50604051610a7f380380610a7f83398101604081905261002e91610101565b6001600160a01b03821661009e5760405162461bcd60e51b815260206004820152602c60248201527f45564d506179726f6c6c56657269666965723a20496e76616c6964207665726960448201526b66696572206164647265737360a01b60648201526084015b60405180910390fd5b806100eb5760405162461bcd60e51b815260206004820181905260248201527f45564d506179726f6c6c56657269666965723a20496e76616c696420766b65796044820152606401610095565b6001600160a01b0390911660805260a052610138565b5f8060408385031215610112575f80fd5b82516001600160a01b0381168114610128575f80fd5b6020939093015192949293505050565b60805160a05161091361016c5f395f818160b4015261040301525f818160e90152818161013a01526103d601526109135ff3fe608060405234801561000f575f80fd5b5060043610610060575f3560e01c80631a2097761461006457806323d2c562146100af5780632b7ac3f3146100e4578063313c7bdc1461012357806346657fe914610138578063df6344381461015e575b5f80fd5b61009a610072366004610640565b6001600160a01b03919091165f90815260208181526040808320938352929052205460ff1690565b60405190151581526020015b60405180910390f35b6100d67f000000000000000000000000000000000000000000000000000000000000000081565b6040519081526020016100a6565b61010b7f000000000000000000000000000000000000000000000000000000000000000081565b6040516001600160a01b0390911681526020016100a6565b610136610131366004610668565b610188565b005b7f000000000000000000000000000000000000000000000000000000000000000061010b565b61009a61016c366004610640565b5f60208181529281526040808220909352908152205460ff1681565b6001600160a01b0385166101ef5760405162461bcd60e51b8152602060048201526024808201527f45564d506179726f6c6c56657269666965723a20496e76616c696420656d706c6044820152636f79656560e01b60648201526084015b60405180910390fd5b5f841161024d5760405162461bcd60e51b815260206004820152602660248201527f45564d506179726f6c6c56657269666965723a20496e76616c696420706179206044820152651c195c9a5bd960d21b60648201526084016101e6565b826102ab5760405162461bcd60e51b815260206004820152602860248201527f45564d506179726f6c6c56657269666965723a20496e76616c696420706179726044820152670ded8d840d0c2e6d60c31b60648201526084016101e6565b6001600160a01b0385165f9081526020818152604080832087845290915290205460ff16156103955783856001600160a01b03167f8518133777ee6699c8a0c85c88d1e2d752b6c33e77351b68c418fe719731730e6040516103319060208082526010908201526f105b1c9958591e481d995c9a599a595960821b604082015260600190565b60405180910390a360405162461bcd60e51b815260206004820152602b60248201527f45564d506179726f6c6c56657269666965723a20506572696f6420616c72656160448201526a191e481d995c9a599a595960aa1b60648201526084016101e6565b604080516001600160a01b038781166020830152818301879052606080830187905283518084039091018152608083019384905263020a49e360e51b9093527f000000000000000000000000000000000000000000000000000000000000000016906341493c6090610431907f000000000000000000000000000000000000000000000000000000000000000090859088908890608401610741565b5f6040518083038186803b158015610447575f80fd5b505afa925050508015610458575060015b6105be5761046461078c565b806308c379a0036104fc57506104786107de565b8061048357506104fe565b85876001600160a01b03167f8518133777ee6699c8a0c85c88d1e2d752b6c33e77351b68c418fe719731730e836040516104bd9190610867565b60405180910390a3806040516020016104d69190610880565b60408051601f198184030181529082905262461bcd60e51b82526101e691600401610867565b505b84866001600160a01b03167f8518133777ee6699c8a0c85c88d1e2d752b6c33e77351b68c418fe719731730e604051610558906020808252600d908201526c2ab735b737bbb71032b93937b960991b604082015260600190565b60405180910390a360405162461bcd60e51b815260206004820152602d60248201527f45564d506179726f6c6c56657269666965723a2050726f6f662076657269666960448201526c18d85d1a5bdb8819985a5b1959609a1b60648201526084016101e6565b6001600160a01b0386165f81815260208181526040808320898452825291829020805460ff1916600117905590518681528792917fbb30399da7afa7c7ab5cd4016ca1ffe77a6ec87e3c29473f0cfaee4c872772b5910160405180910390a3505050505050565b80356001600160a01b038116811461063b575f80fd5b919050565b5f8060408385031215610651575f80fd5b61065a83610625565b946020939093013593505050565b5f805f805f6080868803121561067c575f80fd5b61068586610625565b94506020860135935060408601359250606086013567ffffffffffffffff808211156106af575f80fd5b818801915088601f8301126106c2575f80fd5b8135818111156106d0575f80fd5b8960208285010111156106e1575f80fd5b9699959850939650602001949392505050565b5f5b8381101561070e5781810151838201526020016106f6565b50505f910152565b5f815180845261072d8160208601602086016106f4565b601f01601f19169290920160200192915050565b848152606060208201525f6107596060830186610716565b8281036040840152838152838560208301375f602085830101526020601f19601f86011682010191505095945050505050565b5f60033d11156107a25760045f803e505f5160e01c5b90565b601f8201601f1916810167ffffffffffffffff811182821017156107d757634e487b7160e01b5f52604160045260245ffd5b6040525050565b5f60443d10156107eb5790565b6040516003193d81016004833e81513d67ffffffffffffffff816024840111818411171561081b57505050505090565b82850191508151818111156108335750505050505090565b843d870101602082850101111561084d5750505050505090565b61085c602082860101876107a5565b509095945050505050565b602081525f6108796020830184610716565b9392505050565b7f45564d506179726f6c6c56657269666965723a2050726f6f662076657269666981526f031b0ba34b7b7103330b4b632b21016960851b60208201525f82516108d08160308501602087016106f4565b919091016030019291505056fea26469706673582212200a5f740226ddd672dfd149c7d90774f7ca570cfaecae1f78abbda38bea3ed01664736f6c63430008140033","linkReferences":{}},"methodIdentifiers":{"getVerifier()":"46657fe9","isVerified(address,uint256)":"1a209776","payrollProgramVKey()":"23d2c562","verifiedPeriods(address,uint256)":"df634438","verifier()":"2b7ac3f3","verifySalary(address,uint256,bytes32,bytes)":"313c7bdc"},"id":16}