{"abi":[{"type":"constructor","inputs":[{"name":"_verifier","type":"address","internalType":"address"},{"name":"_vkey","type":"bytes32","internalType":"bytes32"}],"stateMutability":"nonpayable"},{"type":"function","name":"getVerifier","inputs":[],"outputs":[{"name":"","type":"address","internalType":"address"}],"stateMutability":"view"},{"type":"function","name":"isVerified","inputs":[{"name":"employee","type":"address","internalType":"address"},{"name":"payPeriod","type":"uint256","internalType":"uint256"}],"outputs":[{"name":"","type":"bool","internalType":"bool"}],"stateMutability":"view"},{"type":"function","name":"payrollProgramVKey","inputs":[],"outputs":[{"name":"","type":"bytes32","internalType":"bytes32"}],"stateMutability":"view"},{"type":"function","name":"verifiedPeriods","inputs":[{"name":"","type":"address","internalType":"address"},{"name":"","type":"uint256","internalType":"uint256"}],"outputs":[{"name":"","type":"bool","internalType":"bool"}],"stateMutability":"view"},{"type":"function","name":"verifier","inputs":[],"outputs":[{"name":"","type":"address","internalType":"contract ISP1Verifier"}],"stateMutability":"view"},{"type":"function","name":"verifySalary","inputs":[{"name":"employee","type":"address","internalType":"address"},{"name":"payPeriod","type":"uint256","internalType":"uint256"},{"name":"payrollHash","type":"bytes32","internalType":"bytes32"},{"name":"proof","type":"bytes","internalType":"bytes"}],"outputs":[],"stateMutability":"nonpayable"},{"type":"event","name":"SalaryVerified","inputs":[{"name":"employee","type":"address","indexed":true,"internalType":"address"},{"name":"payPeriod","type":"uint256","indexed":true,"internalType":"uint256"},{"name":"payrollHash","type":"bytes32","indexed":false,"internalType":"bytes32"}],"anonymous":false},{"type":"event","name":"VerificationFailed","inputs":[{"name":"employee","type":"address","indexed":true,"internalType":"address"},{"name":"payPeriod","type":"uint256","indexed":true,"internalType":"uint256"},{"name":"reason","type":"string","indexed":false,"internalType":"string"}],"anonymous":false}],"bytecode":{"object":"0x60c060405234801561000f575f80fd5b50604051610a91380380610a9183398101604081905261002e9161010c565b6001600160a01b03821661009f5760405162461bcd60e51b815260206004820152602d60248201527f46757365506179726f6c6c56657269666965723a20496e76616c69642076657260448201526c6966696572206164647265737360981b60648201526084015b60405180910390fd5b806100f65760405162461bcd60e51b815260206004820152602160248201527f46757365506179726f6c6c56657269666965723a20496e76616c696420766b656044820152607960f81b6064820152608401610096565b6001600160a01b0390911660805260a052610143565b5f806040838503121561011d575f80fd5b82516001600160a01b0381168114610133575f80fd5b6020939093015192949293505050565b60805160a05161091a6101775f395f818160b4015261040801525f818160e90152818161013a01526103db015261091a5ff3fe608060405234801561000f575f80fd5b5060043610610060575f3560e01c80631a2097761461006457806323d2c562146100af5780632b7ac3f3146100e4578063313c7bdc1461012357806346657fe914610138578063df6344381461015e575b5f80fd5b61009a610072366004610646565b6001600160a01b03919091165f90815260208181526040808320938352929052205460ff1690565b60405190151581526020015b60405180910390f35b6100d67f000000000000000000000000000000000000000000000000000000000000000081565b6040519081526020016100a6565b61010b7f000000000000000000000000000000000000000000000000000000000000000081565b6040516001600160a01b0390911681526020016100a6565b61013661013136600461066e565b610188565b005b7f000000000000000000000000000000000000000000000000000000000000000061010b565b61009a61016c366004610646565b5f60208181529281526040808220909352908152205460ff1681565b6001600160a01b0385166101f15760405162461bcd60e51b815260206004820152602560248201527f46757365506179726f6c6c56657269666965723a20496e76616c696420656d706044820152646c6f79656560d81b60648201526084015b60405180910390fd5b5f84116102505760405162461bcd60e51b815260206004820152602760248201527f46757365506179726f6c6c56657269666965723a20496e76616c696420706179604482015266081c195c9a5bd960ca1b60648201526084016101e8565b826102af5760405162461bcd60e51b815260206004820152602960248201527f46757365506179726f6c6c56657269666965723a20496e76616c6964207061796044820152680e4ded8d840d0c2e6d60bb1b60648201526084016101e8565b6001600160a01b0385165f9081526020818152604080832087845290915290205460ff161561039a5783856001600160a01b03167f8518133777ee6699c8a0c85c88d1e2d752b6c33e77351b68c418fe719731730e6040516103359060208082526010908201526f105b1c9958591e481d995c9a599a595960821b604082015260600190565b60405180910390a360405162461bcd60e51b815260206004820152602c60248201527f46757365506179726f6c6c56657269666965723a20506572696f6420616c726560448201526b18591e481d995c9a599a595960a21b60648201526084016101e8565b604080516001600160a01b038781166020830152818301879052606080830187905283518084039091018152608083019384905263020a49e360e51b9093527f000000000000000000000000000000000000000000000000000000000000000016906341493c6090610436907f000000000000000000000000000000000000000000000000000000000000000090859088908890608401610747565b5f6040518083038186803b15801561044c575f80fd5b505afa92505050801561045d575060015b6105c457610469610792565b806308c379a003610501575061047d6107e4565b806104885750610503565b85876001600160a01b03167f8518133777ee6699c8a0c85c88d1e2d752b6c33e77351b68c418fe719731730e836040516104c2919061086d565b60405180910390a3806040516020016104db9190610886565b60408051601f198184030181529082905262461bcd60e51b82526101e89160040161086d565b505b84866001600160a01b03167f8518133777ee6699c8a0c85c88d1e2d752b6c33e77351b68c418fe719731730e60405161055d906020808252600d908201526c2ab735b737bbb71032b93937b960991b604082015260600190565b60405180910390a360405162461bcd60e51b815260206004820152602e60248201527f46757365506179726f6c6c56657269666965723a2050726f6f6620766572696660448201526d1a58d85d1a5bdb8819985a5b195960921b60648201526084016101e8565b6001600160a01b0386165f81815260208181526040808320898452825291829020805460ff1916600117905590518681528792917fbb30399da7afa7c7ab5cd4016ca1ffe77a6ec87e3c29473f0cfaee4c872772b5910160405180910390a3505050505050565b80356001600160a01b0381168114610641575f80fd5b919050565b5f8060408385031215610657575f80fd5b6106608361062b565b946020939093013593505050565b5f805f805f60808688031215610682575f80fd5b61068b8661062b565b94506020860135935060408601359250606086013567ffffffffffffffff808211156106b5575f80fd5b818801915088601f8301126106c8575f80fd5b8135818111156106d6575f80fd5b8960208285010111156106e7575f80fd5b9699959850939650602001949392505050565b5f5b838110156107145781810151838201526020016106fc565b50505f910152565b5f81518084526107338160208601602086016106fa565b601f01601f19169290920160200192915050565b848152606060208201525f61075f606083018661071c565b8281036040840152838152838560208301375f602085830101526020601f19601f86011682010191505095945050505050565b5f60033d11156107a85760045f803e505f5160e01c5b90565b601f8201601f1916810167ffffffffffffffff811182821017156107dd57634e487b7160e01b5f52604160045260245ffd5b6040525050565b5f60443d10156107f15790565b6040516003193d81016004833e81513d67ffffffffffffffff816024840111818411171561082157505050505090565b82850191508151818111156108395750505050505090565b843d87010160208285010111156108535750505050505090565b610862602082860101876107ab565b509095945050505050565b602081525f61087f602083018461071c565b9392505050565b7f46757365506179726f6c6c56657269666965723a2050726f6f66207665726966815270034b1b0ba34b7b7103330b4b632b210169607d1b60208201525f82516108d78160318501602087016106fa565b919091016031019291505056fea264697066735822122008572a89383b7b82a30d42592d543aa42b048c9a31fa78eaa4bc776b87aacba064736f6c63430008140033","linkReferences":{}},"methodIdentifiers":{"getVerifier()":"46657fe9","isVerified(address,uint256)":"1a209776","payrollProgramVKey()":"23d2c562","verifiedPeriods(address,uint256)":"df634438","verifier()":"2b7ac3f3","verifySalary(address,uint256,bytes32,bytes)":"313c7bdc"},"id":23}